:020000040800F2
:10000000680600205D01000865010008670100081E
:10001000690100086B0100086D0100080000000084
:100020000000000000000000000000006F01000858
:10003000710100080000000073010008750100084C
:100040007701000877010008770100080000000030
:100050000000000077010008770100087701000820
:100060007701000800000000770100087701000810
:100070007701000800000000E50300087701000890
:1000800077010008770100080000000077010008F0
:1000900077010008000000000000000000000000E0
:1000A00000000000000000000000000077010008D0
:1000B0007701000877010008770100087701000840
:1000C00000F002F800F03AF80AA090E8000C824430
:1000D0008344AAF10107DA4501D100F02FF8AFF20D
:1000E000090EBAE80F0013F0010F18BFFB1A43F016
:1000F000010318477403000094030000103A24BF62
:1001000078C878C1FAD8520724BF30C830C144BF7C
:1001100004680C60704700000023002400250026BE
:10012000103A28BF78C1FBD8520728BF30C148BF5A
:100130000B6070471FB51FBD10B510BD00F031F842
:100140001146FFF7F7FF00F079F900F04FF803B41C
:10015000FFF7F2FF03BC00F057F8000009488047A2
:1001600009480047FEE7FEE7FEE7FEE7FEE7FEE799
:10017000FEE7FEE7FEE7FEE704480549054A064BB1
:10018000704700005D030008C100000868000020FF
:10019000680600206802002068020020704770474F
:1001A0007047754600F02CF8AE4605006946534688
:1001B00020F00700854618B020B5FFF7DDFFBDE849
:1001C00020404FF000064FF000074FF000084FF0BE
:1001D000000B21F00701AC46ACE8C009ACE8C0094F
:1001E000ACE8C009ACE8C0098D46704710B50446BC
:1001F000AFF300802046BDE81040FFF7A8BF000025
:10020000004870470800002001491820ABBEFEE7F7
:1002100026000200704700001248806840F001008C
:100220001049886000BF0F48006800F004000028F3
:10023000F9D00C48C06840F002000A49C86008467E
:10024000406840F40170486000BF0648006800F054
:1002500002000028F9D00348C06840F483700149C7
:10026000C8607047000002401648C06940F40000B2
:100270001449C8611448806820F00F001249886052
:100280000846406820F0030048600846C06820F037
:100290000300C8600846806920F00F0088610846A6
:1002A000806888600846406840F00300486008465F
:1002B000C06840F00300C8600846806940F005004F
:1002C000886170470000024000800B4030B5204C30
:1002D000E46804F00204022C01D11E4800E01D482D
:1002E0001B4CE46804F0010404B140080146184CBA
:1002F000E46804F00404042C05D1154C6468C4F3CC
:100300000324631C5943124CE468C4F3012424B150
:10031000012C06D0022C13D10DE00E4C0E4D2C609A
:1003200013E00B4CE468C4F30314641CB1FBF4F257
:10033000094C226009E04FF40044074D2C6004E0B2
:1003400049F64044044D2C6000BF00BF30BD0000A2
:100350000000024000127A000400002000B50D48A1
:100360000D49C8610846C0680020C860084640685A
:1003700000204860084680680020886008460069C0
:10038000002008610846406900204861FFF79EFF91
:1003900000BD000010000008000002400F48C069C6
:1003A00040F480400D49C8610846406A40F08070C2
:1003B000486200200A49C8600860486045F6BF509E
:1003C0008860022088650E20012181404209920048
:1003D00002F1E022C2F8001100BF704700000240A5
:1003E000000007401248406D4FF6FD71084010496B
:1003F00048650846C0684FF6FE7108400C49C86061
:100400000C480068401C0B49086008460068B0F5BD
:100410007A7F08D10848006880F003000649086028
:1004200000200449086001200149C86070470000AD
:10043000000007400000002000800B40FFF7ECFEAA
:10044000FFF712FFFFF7AAFF0548006840F003001E
:100450000349086062B601200249C86000BFFEE798
:1004600000800B40000007408804000800000020C6
:1004700008000000FC0000089004000808000020AC
:1004800060060000180100080000000000127A0059
:04000005080000C12E
:00000001FF
